{
  "transactions": [
    {
      "hash": "0x8e015d83eecf28b7ebd79dd51d7a83ae730ea65af7d1eae756c0de0623bed56a",
      "transactionType": "CALL",
      "contractName": "Flywheel",
      "contractAddress": "0xb04d55fcc15569b23b8b8c05068c7dab2b9028d8",
      "function": "reward(address,address,bytes)",
      "arguments": [
        "0x51419a6C090A50Aa0BBb5400D49E66E5dbe3DcbF",
        "0x036CbD53842c5426634e7929541eC2318f3dCF7e",
        "0x000000000000000000000000f88e91765f27e4ae0b7d8257c560efbecf2393470000000000000000000000005df0ca0e1c27701d72f7d4e3cf81acfe848d01940000000000000000000000002b654ab28f82a2a4e4f6db8e20791e5acf4125c6000000000000000000000000036cbd53842c5426634e7929541ec2318f3dcf7e0000000000000000000000000000000000000000000000000000000000002710000000000000000000000000000000000000000000000000000001bdcffacfe7000000000000000000000000000000000000000000000000000001d51871def7000000000000000000000000000000000000000000000000000001ec60e8ee070000000000000000000000000000000000000000000000000000000000000032000000000000000000000000000000000000000000000000000000000000006400000000000000000000000043e7b6eade34a87e3962dfc2642c7c0621d362d7effac98ac06263e5a6e86077982bfc70baf6110ae0d3f22b550da7505a412e750000000000000000000000000000000000000000000000000000000000002710"
      ],
      "transaction": {
        "from": "0x6ecb18183838265968039955f1e8829480db5329",
        "to": "0xb04d55fcc15569b23b8b8c05068c7dab2b9028d8",
        "gas": "0x257a9",
        "value": "0x0",
        "input": "0xa345fccf00000000000000000000000051419a6c090a50aa0bbb5400d49e66e5dbe3dcbf000000000000000000000000036cbd53842c5426634e7929541ec2318f3dcf7e000000000000000000000000000000000000000000000000000000000000006000000000000000000000000000000000000000000000000000000000000001a0000000000000000000000000f88e91765f27e4ae0b7d8257c560efbecf2393470000000000000000000000005df0ca0e1c27701d72f7d4e3cf81acfe848d01940000000000000000000000002b654ab28f82a2a4e4f6db8e20791e5acf4125c6000000000000000000000000036cbd53842c5426634e7929541ec2318f3dcf7e0000000000000000000000000000000000000000000000000000000000002710000000000000000000000000000000000000000000000000000001bdcffacfe7000000000000000000000000000000000000000000000000000001d51871def7000000000000000000000000000000000000000000000000000001ec60e8ee070000000000000000000000000000000000000000000000000000000000000032000000000000000000000000000000000000000000000000000000000000006400000000000000000000000043e7b6eade34a87e3962dfc2642c7c0621d362d7effac98ac06263e5a6e86077982bfc70baf6110ae0d3f22b550da7505a412e750000000000000000000000000000000000000000000000000000000000002710",
        "nonce": "0xa0",
        "chainId": "0x14a34"
      },
      "additionalContracts": [],
      "isFixedGasLimit": false
    }
  ],
  "receipts": [
    {
      "status": "0x1",
      "cumulativeGasUsed": "0x26635",
      "logs": [
        {
          "address": "0x036cbd53842c5426634e7929541ec2318f3dcf7e",
          "topics": [
            "0xddf252ad1be2c89b69c2b068fc378daa952ba7f163c4a11628f55a4df523b3ef",
            "0x00000000000000000000000051419a6c090a50aa0bbb5400d49e66e5dbe3dcbf",
            "0x0000000000000000000000005df0ca0e1c27701d72f7d4e3cf81acfe848d0194"
          ],
          "data": "0x0000000000000000000000000000000000000000000000000000000000002710",
          "blockHash": "0x91f8f289f62108359f0e8d43da14406bdb01e1a26deb86a1e57514a61b639e55",
          "blockNumber": "0x1c03268",
          "transactionHash": "0x8e015d83eecf28b7ebd79dd51d7a83ae730ea65af7d1eae756c0de0623bed56a",
          "transactionIndex": "0x1",
          "logIndex": "0x0",
          "removed": false
        },
        {
          "address": "0xb04d55fcc15569b23b8b8c05068c7dab2b9028d8",
          "topics": [
            "0xd5ecf01790b3236f8222f3a2e0e9314316e4d46015652124966f8c758aa34fa9",
            "0x00000000000000000000000051419a6c090a50aa0bbb5400d49e66e5dbe3dcbf"
          ],
          "data": "0x000000000000000000000000036cbd53842c5426634e7929541ec2318f3dcf7e0000000000000000000000005df0ca0e1c27701d72f7d4e3cf81acfe848d0194000000000000000000000000000000000000000000000000000000000000271000000000000000000000000000000000000000000000000000000000000000800000000000000000000000000000000000000000000000000000000000000020df0bbf254eff1fd9f3e7265ec6c4906ae3bf4c2a5b83ad749d46f0e25a1aac26",
          "blockHash": "0x91f8f289f62108359f0e8d43da14406bdb01e1a26deb86a1e57514a61b639e55",
          "blockNumber": "0x1c03268",
          "transactionHash": "0x8e015d83eecf28b7ebd79dd51d7a83ae730ea65af7d1eae756c0de0623bed56a",
          "transactionIndex": "0x1",
          "logIndex": "0x1",
          "removed": false
        }
      ],
      "logsBloom": "0x00000000040000000000000000000000000000000000010000000000000000081000000000000000000000000000000000000000000000000000000000000000000000000000000000000008000000000000000000000000000000000000000800000000000000000000000000000000000000000000000000000010000000000800000000000000000000000000000020000000000000410000000000000000000000000000000002000000000000008000000000000000000000000000000000000002000000000000000000000001040000000000000000000000000000000000000000000000000000000020000000000000000002000000000000000000",
      "type": "0x2",
      "transactionHash": "0x8e015d83eecf28b7ebd79dd51d7a83ae730ea65af7d1eae756c0de0623bed56a",
      "transactionIndex": "0x1",
      "blockHash": "0x91f8f289f62108359f0e8d43da14406bdb01e1a26deb86a1e57514a61b639e55",
      "blockNumber": "0x1c03268",
      "gasUsed": "0x1b225",
      "effectiveGasPrice": "0xf4283",
      "from": "0x6ecb18183838265968039955f1e8829480db5329",
      "to": "0xb04d55fcc15569b23b8b8c05068c7dab2b9028d8",
      "contractAddress": null,
      "l1BaseFeeScalar": "0x44d",
      "l1BlobBaseFee": "0x1",
      "l1BlobBaseFeeScalar": "0xa118b",
      "l1Fee": "0x12f",
      "l1GasPrice": "0x17",
      "l1GasUsed": "0x11d5"
    }
  ],
  "libraries": [],
  "pending": [],
  "returns": {},
  "timestamp": 1754514355,
  "chain": 84532,
  "commit": "55ba07f"
}