{
  "transactions": [
    {
      "hash": "0x4b326f5c83a09539d7677fc46e6493b84211bb868d48c1a88c91a3d4dd515435",
      "transactionType": "CALL",
      "contractName": "Flywheel",
      "contractAddress": "0xb04d55fcc15569b23b8b8c05068c7dab2b9028d8",
      "function": "updateStatus(address,uint8,bytes)",
      "arguments": [
        "0x51419a6C090A50Aa0BBb5400D49E66E5dbe3DcbF",
        "1",
        "0x"
      ],
      "transaction": {
        "from": "0x6ecb18183838265968039955f1e8829480db5329",
        "to": "0xb04d55fcc15569b23b8b8c05068c7dab2b9028d8",
        "gas": "0xc819",
        "value": "0x0",
        "input": "0xd61a3cce00000000000000000000000051419a6c090a50aa0bbb5400d49e66e5dbe3dcbf000000000000000000000000000000000000000000000000000000000000000100000000000000000000000000000000000000000000000000000000000000600000000000000000000000000000000000000000000000000000000000000000",
        "nonce": "0x9f",
        "chainId": "0x14a34"
      },
      "additionalContracts": [],
      "isFixedGasLimit": false
    }
  ],
  "receipts": [
    {
      "status": "0x1",
      "cumulativeGasUsed": "0x1d81e4",
      "logs": [
        {
          "address": "0xb04d55fcc15569b23b8b8c05068c7dab2b9028d8",
          "topics": [
            "0x0364974bf66cfdcc3412ec29c0abfa58c5af69c894ca1a6effeaaecf9c7f3ecd",
            "0x00000000000000000000000051419a6c090a50aa0bbb5400d49e66e5dbe3dcbf"
          ],
          "data": "0x0000000000000000000000006ecb18183838265968039955f1e8829480db532900000000000000000000000000000000000000000000000000000000000000000000000000000000000000000000000000000000000000000000000000000001",
          "blockHash": "0x5db8b0176790c736df70bb07202a8b3c08ea422ed9a3d5ae14d9605bc6280201",
          "blockNumber": "0x1c031c2",
          "transactionHash": "0x4b326f5c83a09539d7677fc46e6493b84211bb868d48c1a88c91a3d4dd515435",
          "transactionIndex": "0x10",
          "logIndex": "0x1b",
          "removed": false
        }
      ],
      "logsBloom": "0x00000000000000000000000000000000000000000000010000000000000000000000000000020000000000000000000000000000000000000000000000000000000000000000000000000000000000000000000000000000000000000000000000000000000000000000000000000000000000000000000000000000000000000000000000000000000000000000000020000000000000000000000000040000000000000080000002000000000000000000000000000000000000000000000000000000000000000000000000000001040000000000000000000000000000000000000000000000000000000000000000000000000002000000000000000000",
      "type": "0x2",
      "transactionHash": "0x4b326f5c83a09539d7677fc46e6493b84211bb868d48c1a88c91a3d4dd515435",
      "transactionIndex": "0x10",
      "blockHash": "0x5db8b0176790c736df70bb07202a8b3c08ea422ed9a3d5ae14d9605bc6280201",
      "blockNumber": "0x1c031c2",
      "gasUsed": "0x90df",
      "effectiveGasPrice": "0xf427f",
      "from": "0x6ecb18183838265968039955f1e8829480db5329",
      "to": "0xb04d55fcc15569b23b8b8c05068c7dab2b9028d8",
      "contractAddress": null,
      "l1BaseFeeScalar": "0x44d",
      "l1BlobBaseFee": "0x1",
      "l1BlobBaseFeeScalar": "0xa118b",
      "l1Fee": "0xb8",
      "l1GasPrice": "0x43",
      "l1GasUsed": "0x640"
    }
  ],
  "libraries": [],
  "pending": [],
  "returns": {},
  "timestamp": 1754514022,
  "chain": 84532,
  "commit": "55ba07f"
}